:100000000C9434000C943E000C943E000C943E0082
:100010000C943E000C943E000C943E000C943E0068
:100020000C943E000C943E000C943E000C943E0058
:100030000C943E000C943E000C943E000C943E0048
:100040000C943E000C943E000C943E000C943E0038
:100050000C943E000C943E000C943E000C943E0028
:100060000C943E000C943E0011241FBECFEFD8E04C
:10007000DEBFCDBF0E9440000C944F000C940000E6
:1000800084B18C6084B92098289A189904C085B1ED
:100090008C6085B9FACF85B1837F85B9F6CFF894A6
:0200A000FFCF90
:00000001FF
